:100000000C9477010C949F010C949F010C949F0118
:100010000C949F010C949F010C949F010C949F01E0
:100020000C949F010C949F010C94930E0C945F0D03
:100030000C949F010C949F010C949F010C949F01C0
:100040000C949F010C949F010C949F010C949F01B0
:100050000C949F010C949F010C949F010C94BE057D
:100060000C949F010C949F010C949F010C949F0190
:100070000C949F010C949F010C949F010C949F0180
:100080000C949F010C949F010C949F010C949F0170
:100090000C9491040C949F010C949F010C949F016B
:1000A0000C949F010C949F010C949F01DB06E006C9
:1000B000E506EF06F90643074307430703070D0765
:1000C000170721072E0743073607640767075607F8
:1000D0005A0760078807880788076B076F07730749
:1000E00079077D07880783070000000200090F00D9
:1000F00000030401000C00000000000000000000EC
:1001000000000000000004080201104080401020A0
:1001100040804080080204018040201002011080CD
:1001200010204040040404040403040502020202F7
:100130000403020202020606060606060404020280
:10014000020400000000250028002B002E003100D2
:1001500000000000240027002A002D003000080BBA
:100160000002020201000904000001020200000571
:1001700024001001052401010104240206052406BF
:1001800000010705810310004009040100020A0074
:10019000000007050202400000070583024000003E
:1001A00000C18081C11201000202000040032A3612
:1001B0008000010102000112010002000000400362
:1001C0002A368000010102000141726475696E6F78
:1001D0002053726C0041726475696E6F204C656FBC
:1001E0006E6172646F0004030904000000000000E7
:1001F00000002A2B28000000000000000000000082
:10020000000000000000000000002C9EB4A0A1A28D
:10021000A434A6A7A5AE362D3738271E1F202122CD
:1002200023242526B333B62EB7B89F8485868788C6
:10023000898A8B8C8D8E8F909192939495969798B6
:10024000999A9B9C9D2F3130A3AD35040506070874
:10025000090A0B0C0D0E0F10111213141516171896
:10026000191A1B1C1DAFB1B0B5000904020001032F
:100270000000000921010100012265000705840337
:1002800040000105010902A1010901A10085010544
:1002900009190129031500250195037501810295AE
:1002A00001750581030501093009310938158125DA
:1002B0007F750895038106C0C005010906A1018567
:1002C00002050719E029E715002501750195088148
:1002D00002950175088103950675081500256505C9
:1002E00007190029658100C0F303BB082011112400
:1002F0001FBECFEFDAE0DEBFCDBF11E0A0E0B1E07E
:10030000E0E9F7E202C005900D92A03BB107D9F7F2
:1003100023E0A0EBB1E001C01D92AA30B207E1F7E3
:1003200012E0CEEED2E004C02297FE010E945111ED
:10033000C83ED107C9F70E94D9080C94C6130C9483
:100340000000CF93C82F8093070190930801492F95
:1003500063E070E082EB91E00E94E0024C2F64E0E9
:1003600070E082EB91E0CF910C94E002CF9363E0D8
:1003700070E082EB91E00E94DD02C82F64E070E043
:1003800082EB91E00E94DD022C2F30E0322F2227F9
:10039000A901480F511DCA01CF91089587ED91E041
:1003A0000E94C70340E052EC61E070E080EA92E016
:1003B0000E94B50844E150E060E070E080EA92E01D
:1003C0000E94420A83EB91E00E940C0361E085E009
:1003D0000E94890761E086E00E9489076091B1016F
:1003E00070E085E00E94B50661E086E00E94C207E9
:1003F0000E94B601909308018093070184E690E083
:100400000E94A10160E570E085E00C94B506CF92F2
:10041000DF92EF92FF92CF93DF93CDB7DEB72C97A9
:100420000FB6F894DEBF0FBECDBF80EA92E00E9407
:100430002208181619060CF0B3C080910601882313
:1004400009F4AEC06BE771E080EA92E00E94C50A51
:10045000882309F4A5C040E260EA72E0CE01079665
:100460000E943B0B63E171E0CE0107960E94CA0F28
:10047000882319F140E260EA72E0CE0101960E9401
:100480003B0B80EA92E00E94380B6B017C01CB01B0
:1004900001978F359A4E60F4C6010E94A101109217
:1004A000B001B60169587E4F80EA92E00E942A09A5
:1004B000CE0101960E94070F6FC067E171E0CE0187
:1004C00007960E94CA0F882319F06CE171E060C0A2
:1004D00062E271E0CE0107960E94CA0F882329F1DB
:1004E00067E271E080EA92E00E942A094AE050E067
:1004F0006091B10180EA92E00E94AD0962E371E08F
:1005000080EA92E00E942A0967E471E080EA92E0C2
:100510000E942A0960910701709108014AE050E0A9
:1005200080EA92E00E94B40937C06BE571E0CE0129
:1005300007960E94CA0F882311F061E009C064E6A3
:1005400071E0CE0107960E94CA0F882339F060E05F
:1005500086E00E94C20767E771E01AC06EE671E0AC
:10056000CE0107960E94CA0F8823B1F080EA92E07C
:100570000E94380B6B017C018FEFC816D10409F083
:1005800058F4B60185E00E94B506B6016A587E4F60
:1005900080EA92E00E942A09CE0107960E94070F86
:1005A0002C960FB6F894DEBF0FBECDBFDF91CF9172
:1005B000FF90EF90DF90CF900895CB010C947913CA
:1005C000CB01642F0C948113DC01ED91FC9101901F
:1005D000F081E02D09940F931F93CF93DF931F9227
:1005E000CDB7DEB78A0187ED91E029830E94DB0356
:1005F000B80187ED91E00E94E4022981622F87ED26
:1006000091E00E94880387ED91E00F90DF91CF91F8
:100610001F910F910C94F003CF93DF93EC0123E033
:1006200040E850E069E270E00E94EB0220E141E81E
:1006300050E069E270E0CE010E94EB0220E046E863
:1006400050E069E270E0CE010E94EB0220E040E859
:1006500050E069E270E0CE01DF91CF910C94EB02A3
:100660008091070290E020910802821B9109089571
:100670002091080280910702281750F4E22FF0E041
:10068000E75FFD4F808190E02F5F2093080208957F
:100690008FEF9FEF0895E091080280910702E8171D
:1006A00030F4F0E0E75FFD4F808190E008958FEF38
:1006B0009FEF08950895CF92DF92EF92FF920F93EC
:1006C0001F93CF93DF937C01CB018A012091E3013B
:1006D000222389F0EB016B01C40ED51ECC15DD057C
:1006E00069F06991D701ED91FC910190F081E02DC5
:1006F000C7010995F3CF642F0E946804C801DF91F8
:10070000CF911F910F91FF90EF90DF90CF900895C0
:10071000CF93DF931F92CDB7DEB769832091E301BA
:100720002223D1F02091E401203240F021E030E09A
:10073000FC013383228380E090E015C08091E501C5
:10074000E82FF0E0EA51FE4F998190838F5F80930C
:10075000E5018093E40105C061E0CE0101960E94AD
:10076000680481E090E00F90DF91CF910895FC0143
:100770001382128248EE53E060E070E044835583B8
:100780006683778385E891E0918380830895109252
:100790000802109207021092E5011092E4010C94F5
:1007A000F70381E08093E301609306021092E50174
:1007B0001092E40108950C94D1030F93062F21E0C9
:1007C0004091E40166EE71E0809106020E941504FA
:1007D0001092E5011092E4011092E3010F91089547
:1007E00061E00C94DD0387ED91E00C94B703109267
:1007F000960281E0809394021092930261E082E07D
:100800000E94C20761E083E00E94C207E9EBF0E0CA
:1008100080818E7F808380818D7F808380E2809342
:10082000B80085E48093BC0008950F93413208F02E
:1008300046C0909196029111FCCF92E0909396025F
:10084000009394029FEF9093290210926E024093BE
:100850006D02FB016FE672E0DB019A2F961B941785
:1008600018F491919D93F9CF109295029091950271
:10087000880F892B8093950280919302813041F4F7
:1008800010929302809195028093BB0085EC01C089
:1008900085EE8093BC00222321F080919602823065
:1008A000E1F3809129028F3F61F08091290280322B
:1008B00051F080912902803341F483E007C081E048
:1008C00005C080E003C082E001C084E00F9108957C
:1008D000613298F420919602243089F460934B029F
:1008E000FC018DE492E0DC012A2F281B261718F466
:1008F00021912D93F9CF80E0089581E0089582E061
:10090000089585ED8093BC008091BC0084FDFCCFF0
:1009100010929602089585EC8093BC001092960286
:1009200008951F920F920FB60F9211242F933F93A9
:100930004F935F936F937F938F939F93AF93BF93E7
:10094000EF93FF938091B900887F803609F49CC0B3
:1009500068F5883209F45BC090F4803109F454C022
:1009600038F4882309F4F5C0883009F44DC0F5C087
:10097000883109F44CC0803209F45DC0EEC0803487
:1009800009F468C048F4803309F455C0883309F08D
:10099000E4C080932902A8C0803509F44FC088358F
:1009A00009F45DC0883409F0D8C0D5C0883909F48D
:1009B000C6C0A8F4883709F467C038F4883609F44B
:1009C00063C0803709F460C0C8C0883809F4B7C074
:1009D000803909F45FC0803809F0BFC05BC0803B3C
:1009E00009F485C038F4803A09F466C0883A09F4FD
:1009F0007EC0B3C0803C09F4A6C0883C09F4A3C003
:100A0000883B09F489C0A9C08091950210C09091DB
:100A10006E0280916D02981770F5E0916E0281E090
:100A20008E0F80936E02F0E0E159FD4F808180933C
:100A3000BB0085EC85C0809329028DC0E0916E02D9
:100A400081E08E0F80936E028091BB00F0E0E1594F
:100A5000FD4F808390916E0280916D026DC0E09198
:100A60006E0281E08E0F80936E028091BB00F0E0F9
:100A7000E159FD4F80838091940281116CC081E027
:100A80008093930284EA60C083E080939602109280
:100A90002A02CFCF80912A02803208F050C0E09124
:100AA0002A0281E08E0F80932A028091BB00F0E041
:100AB000E55DFD4F8083BDCF80912A02803230F406
:100AC000E0912A02F0E0E55DFD4F10820E94810472
:100AD00060912A0270E0E0918F02F09190028BE227
:100AE00092E0099510922A020E948B0436C084E09D
:100AF0008093960210924C0210924B02E091910268
:100B0000F0919202099580914B02811105C081E01C
:100B100080934B0210924D02E0914C0281E08E0FC7
:100B200080934C02F0E0E35BFD4F80818093BB003B
:100B300090914C0280914B02981708F47ACF85E887
:100B40008093BC000AC085EC8093BC001092960292
:100B500004C0109229020E948104FF91EF91BF917D
:100B6000AF919F918F917F916F915F914F913F9145
:100B70002F910F900FBE0F901F9018951F920F92FC
:100B80000FB60F9211242F933F938F939F93AF93A0
:100B9000BF938091980290919902A0919A02B0918E
:100BA0009B023091970223E0230F2D3720F401960A
:100BB000A11DB11D05C026E8230F0296A11DB11D80
:100BC000209397028093980290939902A0939A029F
:100BD000B0939B0280919C0290919D02A0919E02F5
:100BE000B0919F020196A11DB11D80939C0290932C
:100BF0009D02A0939E02B0939F02BF91AF919F91DF
:100C00008F913F912F910F900FBE0F901F901895CD
:100C10002FB7F894609198027091990280919A028E
:100C200090919B022FBF08953FB7F89480919C024A
:100C300090919D02A0919E02B0919F0226B5A89B23
:100C400005C02F3F19F00196A11DB11D3FBF6627BA
:100C5000782F892F9A2F620F711D811D911D42E0FF
:100C6000660F771F881F991F4A95D1F70895CF9275
:100C7000DF92EF92FF92CF93DF936B017C010E9492
:100C80001406EB01C114D104E104F10489F00E94BF
:100C9000E90F0E9414066C1B7D0B683E734090F3B5
:100CA00081E0C81AD108E108F108C851DC4FEACF49
:100CB000DF91CF91FF90EF90DF90CF9008957894DF
:100CC00084B5826084BD84B5816084BD85B5826051
:100CD00085BD85B5816085BDEEE6F0E080818160EF
:100CE0008083E1E8F0E010828081826080838081EF
:100CF00081608083E0E8F0E0808181608083E1E9C9
:100D0000F0E0808182608083808181608083E0E97F
:100D1000F0E0808181608083E1ECF0E0808184609C
:100D20008083808182608083808181608083E3EC26
:100D3000F0E0808181608083E0ECF0E0808182607F
:100D40008083E2ECF0E0808181608083EAE7F0E07C
:100D500080818460808380818260808380818160E3
:100D6000808380818068808308951F93CF93DF9371
:100D7000182FEB0161E00E948907209711F460E0D1
:100D800004C0CF3FD10539F461E0812FDF91CF91CD
:100D90001F910C94C207E12FF0E0E851FF4F4491FE
:100DA00050E0FA013197EF30F10508F06CC0EA5AD3
:100DB000FF4F0C944F1184B5806884BDC7BD68C0D7
:100DC00084B5806284BDC8BD63C0809180008068A6
:100DD00080938000D0938900C093880059C080918F
:100DE0008000806280938000D0938B00C0938A0043
:100DF0004FC080918000886080938000D0938D00E8
:100E0000C0938C0045C080919000806880939000D2
:100E1000D0939900C09398003BC08091900080626D
:100E200080939000D0939B00C0939A0031C0809132
:100E30009000886080939000D0939D00C0939C00A8
:100E400027C08091C00080688093C0008091C0005E
:100E50008F7B8093C000C093CF001AC08091C000E8
:100E600080628093C000C093D00012C08091C20005
:100E700088608093C2008091C2008B7F8093C20003
:100E8000C093D20005C0C038D1050CF07DCF77CF1C
:100E9000DF91CF911F91089590E0FC013197EF30E1
:100EA000F105B0F5EB59FF4F0C944F118091800084
:100EB0008F7703C0809180008F7D8093800008959C
:100EC00080918000877FF9CF84B58F7702C084B589
:100ED0008F7D84BD0895809190008F7707C08091A9
:100EE00090008F7D03C080919000877F8093900059
:100EF00008958091C0008F7703C08091C0008F7DDE
:100F00008093C00008958091C200877F8093C200C3
:100F10000895CF93DF9390E0FC01EA5FFE4F2491A8
:100F2000FC01EC5DFE4F8491882349F190E0880F2D
:100F3000991FFC01E05BFE4FA591B4918E5B9E4F23
:100F4000FC01C591D4919FB7611108C0F8948C91B0
:100F5000209582238C93888182230AC0623051F4C9
:100F6000F8948C91322F309583238C938881822B37
:100F7000888304C0F8948C91822B8C939FBFDF915F
:100F8000CF9108950F931F93CF93DF931F92CDB707
:100F9000DEB7282F30E0F901E851FF4F8491F901C5
:100FA000EA5FFE4F1491F901EC5DFE4F04910023BE
:100FB000C9F0882321F069830E944C076981E02FE2
:100FC000F0E0EE0FFF1FEE5BFE4FA591B4919FB7CF
:100FD000F8948C91611103C01095812301C0812B7D
:100FE0008C939FBF0F90DF91CF911F910F91089528
:100FF000CF93DF931F92CDB7DEB76983DC01ED910C
:10100000FC910280F381E02D41E050E0BE016F5F72
:101010007F4F09950F90DF91CF910895CF93DF9384
:10102000EC018C859D8597FF05C082E00E94340C01
:101030009D878C878C859D85DF91CF91089583E076
:101040000C94890EFC018485958597FD06C082E08D
:101050000E94DC0B90E00196089582E00E94DC0B78
:1010600090E00895FC018485958597FD05C02FEFDC
:101070003FEF35872487089582E00C94340CCF939A
:10108000DF93EC0180911001882331F083E00E940E
:10109000650C1816190634F081E090E09B838A8372
:1010A00080E090E0DF91CF910895FC0120812E5FD8
:1010B000208342E450E06EE571E080E80C94000D7E
:1010C000FC0181819081913A59F4813209F03CC050
:1010D00047E050E069E071E080E00E94000D43C00D
:1010E000913291F5803239F467E070E089E091E067
:1010F0000E94310D06C0823209F035C08281809392
:1011000010018091090190910A01A0910B01B09109
:101110000C01803B9440A105B105C1F48091100100
:1011200080FD14C087E797E790930108809300083B
:101130002BE088E190E00FB6F894A89580936000CA
:101140000FBE209360000FC080E0089588E10FB6C5
:10115000F89480936000109260000FBEA8951092E2
:1011600001081092000881E008952FEF3FEFFC0185
:101170003587248708951092A3021092A20288EE68
:1011800093E0A0E0B0E08093A4029093A502A09326
:10119000A602B093A70285E991E09093A102809303
:1011A000A0028FEF9FEF9093AD028093AC02089561
:1011B00008950E945F060E94D80880EF92E00E9486
:1011C000E90E0E94CE01C0E0D0E00E940702209705
:1011D000E1F30E940000F9CFCF92DF92EF92FF92ED
:1011E0000F931F93CF93DF936C017A01EB01E60E0F
:1011F000F71E00E010E0CE15DF0561F06991D60121
:10120000ED91FC910190F081E02DC6010995080F48
:10121000191FF1CFC801DF91CF911F910F91FF905E
:10122000EF90DF90CF9008956115710581F0DB019B
:101230000D900020E9F7AD0141505109461B570BB5
:10124000DC01ED91FC910280F381E02D099480E0B6
:1012500090E008950C941409DC01ED91FC9101904B
:10126000F081E02D09940F931F93CF93DF93EC014E
:101270006DE00E942C098C016AE0CE010E942C09CD
:10128000800F911FDF91CF911F910F9108958F9241
:101290009F92AF92BF92CF92DF92EF92FF920F9305
:1012A0001F93CF93DF93CDB7DEB7A1970FB6F89416
:1012B000DEBF0FBECDBF7C01C42EE52FCB01D22EE9
:1012C00019A221E02D1510F02AE0D22E8E010F5D1B
:1012D0001F4F8D2C912CA12CB12C6C2D7E2FA50194
:1012E00094010E942D118C2DD29E80191124015041
:1012F00011098A3014F4805D01C0895CF801808393
:10130000211531054105510521F0C22EE32FCA01F7
:10131000E4CFB801C7010E941409A1960FB6F89452
:10132000DEBF0FBECDBFDF91CF911F910F91FF9018
:10133000EF90DF90CF90BF90AF909F908F900895E7
:101340002115310541F4DC01ED91FC910190F08112
:10135000E02D642F09940C9447099A01462F50E020
:1013600060E070E00C94A0090F931F93CF93DF937C
:10137000EC019A01AB0160E070E00E94A0098C01D1
:10138000CE010E943309800F911FDF91CF911F91F1
:101390000F9108950F931F93CF93DF93EC010E9459
:1013A0000806688779878A879B87E881F9810680A4
:1013B000F781E02DCE01099597FF15C00E94080620
:1013C000088519852A853B85601B710B820B930B61
:1013D0000C811D812E813F81601771078207930761
:1013E00020F38FEF9FEFDF91CF911F910F91089521
:1013F0000F931F93CF93DF93EC010E940806688739
:1014000079878A879B87E881F9810084F185E02DBF
:10141000CE01099597FF15C00E9408060885198519
:101420002A853B85601B710B820B930B0C811D8100
:101430002E813F81601771078207930720F38FEF9A
:101440009FEFDF91CF911F910F910895CF93DF937D
:10145000EC01CE010E94F80997FD11C08D32910573
:1014600071F09C01205331092A30310540F0E881A8
:10147000F9810680F781E02DCE010995EACFDF9151
:10148000CF910895FC014483558366837783089543
:101490006F927F928F929F92AF92BF92CF92DF9284
:1014A000EF92FF920F931F93CF93DF935C016B0139
:1014B0004A013901FB0180818823E9F1E12CF12CFB
:1014C000C0E0D0E0C5010E94CA09181619068CF5C3
:1014D000F601EC0FFD1F2081332727FD3095821781
:1014E000930711F0C0E0D0E0F601EC0FFD1F208162
:1014F000332727FD30958217930721F42196C815CD
:10150000D905C8F40115110589F0F301EE0DFF1D91
:101510002081332727FD30958217930739F4FFEF99
:10152000EF1AFF0AE016F10668F203C0E12CF12C75
:10153000C9CF80E001C081E0DF91CF911F910F9171
:10154000FF90EF90DF90CF90BF90AF909F908F90E3
:101550007F906F9008950F931F939A01FA01019065
:101560000020E9F78F0101501109041B150BFB0145
:1015700001900020E9F7AF0141505109461B570B7C
:101580000E94480A1F910F91089541E251E00C9486
:10159000AB0ACF92DF92FF920F931F93CF93DF930B
:1015A00000D000D0CDB7DEB76C01062F0E94260A0E
:1015B000FC0197FD4BC020E030E0A901F12C112780
:1015C00007FD1095E017F107E9F0ED32F105C1F0E4
:1015D000CF01C0970A97B0F4AAE0B0E00E9455117D
:1015E0009B01AC01CF01AA2797FDA095BA2F280F28
:1015F000391F4A1F5B1F205331094109510902C09D
:10160000FF24F394D601ED91FC910680F781E02D43
:10161000C60129833A834B835C830995C6010E94E6
:10162000F809FC01C09729813A814B815C810A97B6
:1016300048F2E017F10731F2FF2061F066277727C3
:10164000CB01621B730B840B950B06C060E070E04E
:10165000CB0102C0CA01B9010F900F900F900F90FB
:10166000DF91CF911F910F91FF90DF90CF90089560
:1016700061E00C94C90AEF92FF920F931F93CF93EE
:10168000DF93EC018B01E42E61E271E00E94750FA3
:10169000C8010E94CA09FF24E7FCF09497FD0BC023
:1016A0008E159F0541F0682FCE010E94B70FC8012B
:1016B0000E94CA09F3CFCE01DF91CF911F910F9104
:1016C000FF90EF9008954091F4025091F50220911F
:1016D000F2023091F30242175307B4F49091E800FC
:1016E0009570E1F39091E80092FD19C08093F100AC
:1016F0008091F4029091F50201968F739927892BBE
:1017000019F48EEF8093E8008091F4029091F50235
:1017100001969093F5028093F40281E0089580E0B1
:101720000895CF92DF92FF920F931F93CF93DF9391
:101730001F92CDB7DEB7082F162F862F880F8E5F2A
:1017400099830E94630B83E00E94630BF02EC02EEE
:101750009981D92E8C2D8F19811778F4F6018491F7
:101760000E94630B082F80E00E94630B8023FFEF31
:10177000CF1ADF0A8111EECF01C081E00F90DF9117
:10178000CF911F910F91FF90DF90CF9008956150FE
:1017900030F02091F100FC0120830196F8CF2898C9
:1017A00084E68093F70208952FB7FC012083F89414
:1017B00067706093E9000895CF93DF931F92CDB7D0
:1017C000DEB7682FCE0101960E94D40B8091F20003
:1017D00099819FBF0F90DF91CF910895FF920F9352
:1017E0001F93CF93DF9300D0CDB7DEB7F62E8A01DB
:1017F0009091F602992311F057FF03C08FEF9FEFEE
:101800002BC0682FCE0101967A830E94D40B809161
:10181000F20090E0A8017A81801791070CF4AC01E6
:10182000EF2DF72FF40E84E6FE1639F028988093FA
:10183000F7029091F1009193F7CF4115510521F0F6
:101840008091F200882321F089818FBFCA0104C0F2
:101850008BE68093E800F8CF0F900F90DF91CF9147
:101860001F910F91FF900895CF93DF931F92CDB7F3
:10187000DEB741E050E0BE016F5F7F4F0E94EE0B8C
:10188000019719F4898190E002C08FEF9FEF0F90CC
:10189000DF91CF910895CF93DF931F92CDB7DEB73D
:1018A000682FCE0101960E94D40B9091E800892FF9
:1018B000807295FF04C09091F20080E4891B9981A9
:1018C0009FBF0F90DF91CF9108956F927F928F927B
:1018D0009F92AF92BF92CF92DF92EF92FF920F93BF
:1018E0001F93CF93DF931F92CDB7DEB7782E7B0186
:1018F000C42EB52E8091F602882369F0042F152F8F
:101900008AEFD82E872D8072982E9AE3A92E872DE4
:101910008074882E11C08FEF9FEF57C0872D0E94D3
:101920004B0C682E81110CC0DA94A9F361E070E0D1
:1019300080E090E00E9437060115110579F73BC061
:10194000282F30E0021713070CF4602E672DCE010C
:1019500001960E94D40B8091E80085FF29C0262DB6
:1019600030E0021B130B992039F06A948FEF681650
:10197000B1F01092F100F9CFF701862D77FE07C084
:10198000815058F094919093F1003196F9CF8150A5
:1019900020F091919093F100FACFE20EF31E809126
:1019A000E80085FF0FC00115110511F481100AC070
:1019B00089818FBFC1CF5D9884E68093F8028C2D1A
:1019C0009B2D03C0A092E800F3CF0F90DF91CF9141
:1019D0001F910F91FF90EF90DF90CF90BF90AF904D
:1019E0009F908F907F906F9008951092E9001092D1
:1019F000F5021092F4029093F3028093F20208959C
:101A0000CF92DF92FF920F931F93CF93DF9300D07B
:101A1000CDB7DEB7F82E8A016B0101151105B1F0C3
:101A2000F601F7FE02C0849101C0808149835A8388
:101A30000E94630B01501109FFEFCF1ADF0A4981A1
:101A40005A818111EACF8FEF9FEF01C0CA010F9039
:101A50000F90DF91CF911F910F91FF90DF90CF906A
:101A600008951F93CF93DF931F92CDB7DEB7162F44
:101A70002091E80022FFFCCF612F79830E94C70BE1
:101A80008BEF8093E800812F7981972F0F90DF9162
:101A9000CF911F910895CF93DF931F92CDB7DEB7FB
:101AA0001982CE0101960E945508CE0101960E942E
:101AB0000810898190E00F90DF91CF9108951F92D7
:101AC0000F920FB60F921124EF92FF920F931F9374
:101AD0002F933F934F935F936F937F938F939F9336
:101AE000AF93BF93EF93FF93CF93DF93CDB7DEB761
:101AF0006297DEBFCDBF1092E9008091E80083FFBE
:101B0000EBC068E0CE010A960E94C70B82EF80937B
:101B1000E8009A8597FF05C08091E80080FFFCCF20
:101B200003C08EEF8093E800892F807609F0B9C05A
:101B30008B85811105C01092F1001092F100C5C093
:101B4000282F2D7F213009F4C0C0853049F48091C1
:101B5000E80080FFFCCF8C8580688093E300B5C0EF
:101B6000863009F076C02D85E888F988223071F535
:101B700080E090E02A8B0E94F50C0E944B0D99E0CA
:101B80008E010F5F1F4FF801392F11923A95E9F737
:101B900099832A892A8391E09E8390E898879AEF17
:101BA00099872091F4023091F502275F3F4F3C83E3
:101BB0002B838D83C7010E94F50C49E050E0B801EA
:101BC00080E00E94000D0E944B0D7FC0C7012A8B50
:101BD0000E94F50C2A89223241F482E290E00E94B0
:101BE0001310892B09F071C074C0213069F4888901
:101BF0009989089711F42093F1028091F1028111E3
:101C000018C067EB71E01AC0233009F062C08C8500
:101C1000882391F0823021F460E185ED91E006C0E7
:101C2000813009F056C06BE089EC91E00E94910B85
:101C30004AC065EA71E002C066EE71E061157105A7
:101C400009F447C0FB01449150E080E80E94000D78
:101C50003CC0873009F43DC0883021F481E0809396
:101C6000F10033C0893089F5937099F5E1EAF1E02C
:101C700081E021E096E38093E9002093EB0034912A
:101C80003093EC009093ED008F5F3196853099F79B
:101C90008EE78093EA001092EA008C858093F6022A
:101CA00014C0888999890E94F50C8E85811105C020
:101CB000CE010A960E94600806C0823051F4CE011F
:101CC0000A960E943B10882321F08EEF8093E80053
:101CD00003C081E28093EB0062960FB6F894DEBFFA
:101CE0000FBECDBFDF91CF91FF91EF91BF91AF912B
:101CF0009F918F917F916F915F914F913F912F9124
:101D00001F910F91FF90EF900F900FBE0F901F90BB
:101D100018958093E9008091F200882319F08AE3F6
:101D20008093E80008951F920F920FB60F9211242E
:101D30002F933F934F935F936F937F938F939F93D3
:101D4000AF93BF93EF93FF938091E1001092E10076
:101D500083FF0FC01092E90091E09093EB00109286
:101D6000EC0092E39093ED001092F60298E09093CD
:101D7000F00082FF1DC083E00E94890E8091F8026E
:101D8000882339F08091F80281508093F8028823EB
:101D900069F08091F702882359F08091F702815011
:101DA0008093F702811104C0289A02C05D9AF1CF96
:101DB000FF91EF91BF91AF919F918F917F916F9123
:101DC0005F914F913F912F910F900FBE0F901F90F9
:101DD00018951092F60281E08093D70080EA8093F4
:101DE000D80082E189BD09B400FEFDCF61E070E05A
:101DF00080E090E00E94370680E98093D8008CE074
:101E00008093E2001092E000559A209A0895FC0118
:101E1000808191810C940712CF93DF93EC0188812C
:101E20009981009711F00E940712198218821D8271
:101E30001C821B821A82DF91CF9108950F931F930A
:101E4000CF93DF93EC018B016F5F7F4F8881998186
:101E50000E949612009731F0998388831B830A832E
:101E600081E001C080E0DF91CF911F910F91089533
:101E7000CF93DF93EC0188819981892B29F08A81A6
:101E80009B818617970760F4CE010E941E0F88235E
:101E900041F08C819D81892B19F4E881F9811082B0
:101EA00081E0DF91CF910895EF92FF920F931F93FE
:101EB000CF93DF93EC017B018A01BA010E94380FB6
:101EC000811104C0CE010E940C0F07C01D830C833A
:101ED000B701888199810E947213CE01DF91CF9161
:101EE0001F910F91FF90EF900895FC0111821082D5
:101EF00013821282158214826115710559F0FB015B
:101F000001900020E9F7AF0141505109461B570BE2
:101F10000C94540F0895EF92FF920F931F93CF9359
:101F2000DF93EC017B010C811D816115710511F4BA
:101F300080E016C04115510591F0040F151FB8013E
:101F40000E94380F8823A1F3288139818C819D81DB
:101F5000B701820F931F0E9472131D830C8381E0CF
:101F6000DF91CF911F910F91FF90EF900895CF9344
:101F7000DF9300D0CDB7DEB769831A8241E050E02D
:101F8000BE016F5F7F4F0E948B0F0F900F90DF910C
:101F9000CF910895FC0124813581232B31F421E078
:101FA00061157105A1F0FB0108C0FC0180819181E0
:101FB0006115710531F421E0FC018081882339F03D
:101FC00005C00E94691321E0892B09F020E0822FCF
:101FD00008950895FF920F931F93CF93DF93EC0121
:101FE000F62EE881F9810480F581E02D09958C01B8
:101FF000E881F9810680F781E02D6F2DCE010995EA
:10200000C8019927DF91CF911F910F91FF900895FB
:10201000FC0120812F5F208349E150E06AE672E0F5
:1020200080E80C94000D45E650E063E872E080E83B
:102030000C94000DEF92FF920F931F93CF93DF93B9
:102040001F92CDB7DEB789838B017A0141E050E062
:10205000BE016F5F7F4F84E00E94650CA701B8014D
:1020600084E40E94650C0F90DF91CF911F910F9136
:10207000FF90EF900895FC0191818081813A31F4C5
:1020800081E0913091F0933089F411C0813271F484
:102090009B3021F482818093120105C09A3031F483
:1020A00082818093110181E00895089580E0089570
:1020B00048E050E082E00C941A10CF93DF93DC01EB
:1020C000683818F0E8E7E60F25C0E62FF0E067FF74
:1020D00011C0E058F10981E090E001C0880FEA9555
:1020E000EAF714969C911497982B14969C93149746
:1020F000E0E010C0E651FE4FE491EE2309F440C049
:10210000E7FF08C014968C911497826014968C9304
:102110001497EF7716968C9116978E1741F11796B4
:102120008C9117978E1719F118968C9118978E1716
:10213000F1F019968C9119978E17C9F01A968C9117
:102140001A978E17A1F01B968C911B978E1779F01A
:1021500080E090E0ED01C80FD91F2E81211102C04F
:10216000EE8305C0019686309105A1F709C0BD0137
:102170006C5F7F4FCD010E94581081E090E008C055
:1021800081E090E013969C938E93129780E090E00C
:10219000DF91CF910895683818F0E8E7E60F25C081
:1021A000E62FF0E067FF12C0E058F10921E030E0CF
:1021B00001C0220FEA95EAF72095DC0114963C91C4
:1021C0001497322314963C93E0E00FC0E651FE4F83
:1021D000E491EE2329F1E7FF08C0DC0114962C916D
:1021E00014972D7F14962C93EF7720E030E0EE23A8
:1021F00051F0DC01A20FB31F16964C9116974E13A7
:1022000002C016961C922F5F3F4F2630310579F79A
:10221000BC016C5F7F4F0E94581081E090E00895F0
:1022200080E090E00895FC011682178210861186E6
:10223000128613861482BC016C5F7F4F0C94581079
:10224000109205031092FC021092FB0285EA91E0C5
:102250009093FA028093F9020895A1E21A2EAA1B24
:10226000BB1BFD010DC0AA1FBB1FEE1FFF1FA21746
:10227000B307E407F50720F0A21BB30BE40BF50B43
:10228000661F771F881F991F1A9469F760957095CC
:10229000809590959B01AC01BD01CF010895EE0F93
:1022A000FF1F0590F491E02D09940E946011A59FF5
:1022B000900DB49F900DA49F800D911D1124089541
:1022C000A29FB001B39FC001A39F700D811D112477
:1022D000911DB29F700D811D1124911D0895CF9302
:1022E000DF938230910510F482E090E0E0910803E2
:1022F000F091090320E030E0A0E0B0E0309739F140
:102300004081518148175907B8F04817590771F4AF
:1023100082819381109729F013969C938E93129744
:102320002CC0909309038093080327C02115310521
:1023300031F04217530718F0A901DB0101C0EF018A
:102340009A01BD01DF010280F381E02DD7CF211575
:102350003105F9F0281B390B2430310580F48A81CE
:102360009B816115710521F0FB019383828304C079
:102370009093090380930803FE01329644C0FE0146
:10238000E20FF31F819391932250310939832883FF
:102390003AC02091060330910703232B41F420918A
:1023A000020130910301309307032093060320912B
:1023B0000001309101012115310541F42DB73EB7DF
:1023C0004091040150910501241B350BE091060357
:1023D000F0910703E217F307A0F42E1B3F0B281719
:1023E000390778F0AC014E5F5F4F2417350748F08E
:1023F0004E0F5F1F50930703409306038193919301
:1024000002C0E0E0F0E0CF01DF91CF910895CF93DB
:10241000DF93009709F487C0FC0132971382128280
:10242000C0910803D0910903209781F42081318164
:10243000280F391F80910603909107038217930795
:1024400079F5F0930703E09306036DC0DE0120E009
:1024500030E0AE17BF0750F412964D915C91139780
:102460009D014115510509F1DA01F3CFB383A28330
:1024700040815181840F951F8A179B0771F48D91BC
:102480009C911197840F951F0296918380831296D9
:102490008D919C911397938382832115310529F4A3
:1024A000F0930903E09308033EC0D9011396FC930F
:1024B000EE9312974D915D91A40FB51FEA17FB079C
:1024C00079F480819181840F951F0296D90111962C
:1024D0009C938E938281938113969C938E931297F3
:1024E000E0E0F0E08A819B81009719F0FE01EC01A9
:1024F000F9CFCE01029628813981820F931F209156
:102500000603309107032817390769F4309729F437
:10251000109209031092080302C013821282D09312
:102520000703C0930603DF91CF910895A0E0B0E0C8
:10253000ECE9F2E10C949313EC01CB01209719F430
:102540000E946F11B8C0FE01E60FF71F9E012250D6
:102550003109E217F30708F4ACC0D9010D911C91C1
:10256000119706171707B8F00530110508F49FC03A
:10257000A801445051094617570708F498C0025063
:102580001109061B170B019311936D937C93CF01D7
:102590000E9407128CC05B01A01AB10A4E01800E86
:1025A000911EA0910803B0910903612C712C60E089
:1025B00070E0109709F449C0A815B905C9F5ED9068
:1025C000FC901197670142E0C40ED11CCA14DB04D1
:1025D00078F147018A189B08640142E0C40ED11CBF
:1025E0001296BC9012971396AC91B5E0CB16D1041D
:1025F00040F0B282A38391828082D9018D939C9313
:1026000009C00E5F1F4F0E0D1F1DF90111830083BE
:10261000EB2DFA2F6115710531F0DB011396FC9358
:10262000EE93129744C0F0930903E09308033FC070
:102630006D917C9111976616770608F43B01BD01F8
:1026400012960D90BC91A02DB4CF609106037091AD
:10265000070368157905E9F468167906D0F4409106
:102660000001509101014115510541F44DB75EB78C
:102670006091040170910501461B570BE417F507A3
:10268000C0F4F0930703E0930603F901918380837C
:102690000EC00E946F117C01009759F0A801BE0185
:1026A0000E946013CE010E940712C70104C0CE0130
:1026B00002C080E090E0CDB7DEB7EEE00C94AF133F
:1026C000FB01DC0102C001900D9241505040D8F74F
:1026D0000895FB01DC018D91019080190110D9F35F
:1026E000990B0895FB01DC0101900D920020E1F7A8
:1026F0000895F999FECF92BD81BDF89A992780B5CA
:102700000895262FF999FECF1FBA92BD81BD20BD35
:102710000FB6F894FA9AF99A0FBE019608952F927F
:102720003F924F925F926F927F928F929F92AF9261
:10273000BF92CF92DF92EF92FF920F931F93CF93AE
:10274000DF93CDB7DEB7CA1BDB0B0FB6F894DEBF45
:102750000FBECDBF09942A88398848885F846E846B
:102760007D848C849B84AA84B984C884DF80EE80B5
:10277000FD800C811B81AA81B981CE0FD11D0FB6BE
:10278000F894DEBF0FBECDBFED010895F894FFCFE2
:1027900000000A03800001C80000E1000000000002
:1027A0000001017365740070696E6700706F6E6779
:1027B0000A0072656164004C454420506F77657271
:1027C0003A000943757272656E74204272696768D7
:1027D000746E6573733A00095461726765742042C0
:1027E00072696768746E6573733A006C61736572C1
:1027F0005F6F6E006C617365725F6F666600736514
:10280000745F70776D00206F6B0A00746F6F6C20BF
:10281000000000000088035B03300338034B035AB9
:102820000300000000F8073F08220832080E081FC6
:102830000800000000EA0FEC085D10CB1013110037
:00000001FF
